{
  "contractName": "SmartContract",
  "abi": [
    {
      "anonymous": false,
      "inputs": [
        {
          "indexed": false,
          "internalType": "address",
          "name": "buyer",
          "type": "address"
        },
        {
          "indexed": false,
          "internalType": "address",
          "name": "seller",
          "type": "address"
        },
        {
          "indexed": false,
          "internalType": "bool",
          "name": "confirmed",
          "type": "bool"
        }
      ],
      "name": "RegisteredOrder",
      "type": "event"
    },
    {
      "anonymous": false,
      "inputs": [
        {
          "indexed": false,
          "internalType": "address",
          "name": "sender",
          "type": "address"
        },
        {
          "indexed": false,
          "internalType": "bool",
          "name": "confirmed",
          "type": "bool"
        }
      ],
      "name": "RegisteredProduct",
      "type": "event"
    },
    {
      "anonymous": false,
      "inputs": [],
      "name": "UpdatedOrder",
      "type": "event"
    },
    {
      "constant": false,
      "inputs": [
        {
          "internalType": "address payable",
          "name": "_farmer",
          "type": "address"
        },
        {
          "internalType": "string",
          "name": "_name",
          "type": "string"
        },
        {
          "internalType": "uint256",
          "name": "_price",
          "type": "uint256"
        },
        {
          "internalType": "string",
          "name": "_typeItem",
          "type": "string"
        },
        {
          "internalType": "string",
          "name": "_description",
          "type": "string"
        }
      ],
      "name": "setProduct",
      "outputs": [],
      "payable": false,
      "stateMutability": "nonpayable",
      "type": "function"
    },
    {
      "constant": true,
      "inputs": [
        {
          "internalType": "uint256",
          "name": "_index",
          "type": "uint256"
        }
      ],
      "name": "getProduct",
      "outputs": [
        {
          "internalType": "address",
          "name": "",
          "type": "address"
        },
        {
          "internalType": "address",
          "name": "",
          "type": "address"
        },
        {
          "internalType": "string",
          "name": "",
          "type": "string"
        },
        {
          "internalType": "uint256",
          "name": "",
          "type": "uint256"
        },
        {
          "internalType": "string",
          "name": "",
          "type": "string"
        },
        {
          "internalType": "string",
          "name": "",
          "type": "string"
        }
      ],
      "payable": false,
      "stateMutability": "view",
      "type": "function"
    },
    {
      "constant": true,
      "inputs": [],
      "name": "getAllProducts",
      "outputs": [
        {
          "components": [
            {
              "internalType": "address",
              "name": "owner",
              "type": "address"
            },
            {
              "internalType": "address payable",
              "name": "farmer",
              "type": "address"
            },
            {
              "internalType": "string",
              "name": "name",
              "type": "string"
            },
            {
              "internalType": "uint256",
              "name": "price",
              "type": "uint256"
            },
            {
              "internalType": "string",
              "name": "typeItem",
              "type": "string"
            },
            {
              "internalType": "string",
              "name": "description",
              "type": "string"
            },
            {
              "internalType": "bool",
              "name": "available",
              "type": "bool"
            }
          ],
          "internalType": "struct SmartContract.Product[]",
          "name": "",
          "type": "tuple[]"
        }
      ],
      "payable": false,
      "stateMutability": "view",
      "type": "function"
    },
    {
      "constant": false,
      "inputs": [
        {
          "internalType": "uint256",
          "name": "_productId",
          "type": "uint256"
        },
        {
          "components": [
            {
              "internalType": "address",
              "name": "owner",
              "type": "address"
            },
            {
              "internalType": "address payable",
              "name": "farmer",
              "type": "address"
            },
            {
              "internalType": "string",
              "name": "name",
              "type": "string"
            },
            {
              "internalType": "uint256",
              "name": "price",
              "type": "uint256"
            },
            {
              "internalType": "string",
              "name": "typeItem",
              "type": "string"
            },
            {
              "internalType": "string",
              "name": "description",
              "type": "string"
            },
            {
              "internalType": "bool",
              "name": "available",
              "type": "bool"
            }
          ],
          "internalType": "struct SmartContract.Product",
          "name": "_product",
          "type": "tuple"
        },
        {
          "internalType": "address",
          "name": "_buyer",
          "type": "address"
        },
        {
          "internalType": "address payable",
          "name": "_seller",
          "type": "address"
        },
        {
          "internalType": "string",
          "name": "_deliveryPlace",
          "type": "string"
        }
      ],
      "name": "setOrder",
      "outputs": [],
      "payable": false,
      "stateMutability": "nonpayable",
      "type": "function"
    },
    {
      "constant": true,
      "inputs": [],
      "name": "getOrders",
      "outputs": [
        {
          "components": [
            {
              "internalType": "uint256",
              "name": "productId",
              "type": "uint256"
            },
            {
              "components": [
                {
                  "internalType": "address",
                  "name": "owner",
                  "type": "address"
                },
                {
                  "internalType": "address payable",
                  "name": "farmer",
                  "type": "address"
                },
                {
                  "internalType": "string",
                  "name": "name",
                  "type": "string"
                },
                {
                  "internalType": "uint256",
                  "name": "price",
                  "type": "uint256"
                },
                {
                  "internalType": "string",
                  "name": "typeItem",
                  "type": "string"
                },
                {
                  "internalType": "string",
                  "name": "description",
                  "type": "string"
                },
                {
                  "internalType": "bool",
                  "name": "available",
                  "type": "bool"
                }
              ],
              "internalType": "struct SmartContract.Product",
              "name": "product",
              "type": "tuple"
            },
            {
              "internalType": "address",
              "name": "buyer",
              "type": "address"
            },
            {
              "internalType": "address payable",
              "name": "seller",
              "type": "address"
            },
            {
              "internalType": "string",
              "name": "deliveryPlace",
              "type": "string"
            },
            {
              "internalType": "bool",
              "name": "delivered",
              "type": "bool"
            }
          ],
          "internalType": "struct SmartContract.Order[]",
          "name": "",
          "type": "tuple[]"
        }
      ],
      "payable": false,
      "stateMutability": "view",
      "type": "function"
    },
    {
      "constant": true,
      "inputs": [
        {
          "internalType": "uint256",
          "name": "_productId",
          "type": "uint256"
        }
      ],
      "name": "getOrder",
      "outputs": [
        {
          "components": [
            {
              "internalType": "uint256",
              "name": "productId",
              "type": "uint256"
            },
            {
              "components": [
                {
                  "internalType": "address",
                  "name": "owner",
                  "type": "address"
                },
                {
                  "internalType": "address payable",
                  "name": "farmer",
                  "type": "address"
                },
                {
                  "internalType": "string",
                  "name": "name",
                  "type": "string"
                },
                {
                  "internalType": "uint256",
                  "name": "price",
                  "type": "uint256"
                },
                {
                  "internalType": "string",
                  "name": "typeItem",
                  "type": "string"
                },
                {
                  "internalType": "string",
                  "name": "description",
                  "type": "string"
                },
                {
                  "internalType": "bool",
                  "name": "available",
                  "type": "bool"
                }
              ],
              "internalType": "struct SmartContract.Product",
              "name": "product",
              "type": "tuple"
            },
            {
              "internalType": "address",
              "name": "buyer",
              "type": "address"
            },
            {
              "internalType": "address payable",
              "name": "seller",
              "type": "address"
            },
            {
              "internalType": "string",
              "name": "deliveryPlace",
              "type": "string"
            },
            {
              "internalType": "bool",
              "name": "delivered",
              "type": "bool"
            }
          ],
          "internalType": "struct SmartContract.Order",
          "name": "order",
          "type": "tuple"
        }
      ],
      "payable": false,
      "stateMutability": "view",
      "type": "function"
    },
    {
      "constant": false,
      "inputs": [
        {
          "internalType": "uint256",
          "name": "_index",
          "type": "uint256"
        },
        {
          "internalType": "string",
          "name": "_deliveryPlace",
          "type": "string"
        }
      ],
      "name": "buyProduct",
      "outputs": [],
      "payable": true,
      "stateMutability": "payable",
      "type": "function"
    },
    {
      "constant": false,
      "inputs": [
        {
          "internalType": "uint256",
          "name": "_index",
          "type": "uint256"
        }
      ],
      "name": "confirmedPurchase",
      "outputs": [],
      "payable": true,
      "stateMutability": "payable",
      "type": "function"
    }
  ],
  "bytecode": "0x60806040524760005534801561001457600080fd5b50612ae8806100246000396000f3fe60806040526004361061007b5760003560e01c8063500ce6b41161004e578063500ce6b41461011b57806379a809c914610137578063b9db15b414610160578063d09ef241146101a25761007b565b806302ee3a52146100805780631b50f863146100ab5780632e2dc43e146100c757806340782e83146100f2575b600080fd5b34801561008c57600080fd5b506100956101df565b6040516100a291906127f3565b60405180910390f35b6100c560048036036100c09190810190612211565b6104f5565b005b3480156100d357600080fd5b506100dc6108cc565b6040516100e991906127d1565b60405180910390f35b3480156100fe57600080fd5b5061011960048036036101149190810190612152565b610d69565b005b6101356004803603610130919081019061223a565b610f4b565b005b34801561014357600080fd5b5061015e6004803603610159919081019061228e565b611268565b005b34801561016c57600080fd5b5061018760048036036101829190810190612211565b611526565b6040516101999695949392919061275b565b60405180910390f35b3480156101ae57600080fd5b506101c960048036036101c49190810190612211565b611857565b6040516101d69190612815565b60405180910390f35b60606001805480602002602001604051908101604052809291908181526020016000905b828210156104ec57838290600052602060002090600702016040518060e00160405290816000820160009054906101000a900473ffffffffffffffffffffffffffffffffffffffff1673ffffffffffffffffffffffffffffffffffffffff1673ffffffffffffffffffffffffffffffffffffffff1681526020016001820160009054906101000a900473ffffffffffffffffffffffffffffffffffffffff1673ffffffffffffffffffffffffffffffffffffffff1673ffffffffffffffffffffffffffffffffffffffff168152602001600282018054600181600116156101000203166002900480601f01602080910402602001604051908101604052809291908181526020018280546001816001161561010002031660029004801561036b5780601f106103405761010080835404028352916020019161036b565b820191906000526020600020905b81548152906001019060200180831161034e57829003601f168201915b5050505050815260200160038201548152602001600482018054600181600116156101000203166002900480601f0160208091040260200160405190810160405280929190818152602001828054600181600116156101000203166002900480156104175780601f106103ec57610100808354040283529160200191610417565b820191906000526020600020905b8154815290600101906020018083116103fa57829003601f168201915b50505050508152602001600582018054600181600116156101000203166002900480601f0160208091040260200160405190810160405280929190818152602001828054600181600116156101000203166002900480156104b95780601f1061048e576101008083540402835291602001916104b9565b820191906000526020600020905b81548152906001019060200180831161049c57829003601f168201915b505050505081526020016006820160009054906101000a900460ff16151515158152505081526020019060010190610203565b50505050905090565b6104fd611d79565b6001828154811061050a57fe5b90600052602060002090600702016040518060e00160405290816000820160009054906101000a900473ffffffffffffffffffffffffffffffffffffffff1673ffffffffffffffffffffffffffffffffffffffff1673ffffffffffffffffffffffffffffffffffffffff1681526020016001820160009054906101000a900473ffffffffffffffffffffffffffffffffffffffff1673ffffffffffffffffffffffffffffffffffffffff1673ffffffffffffffffffffffffffffffffffffffff168152602001600282018054600181600116156101000203166002900480601f0160208091040260200160405190810160405280929190818152602001828054600181600116156101000203166002900480156106685780601f1061063d57610100808354040283529160200191610668565b820191906000526020600020905b81548152906001019060200180831161064b57829003601f168201915b5050505050815260200160038201548152602001600482018054600181600116156101000203166002900480601f0160208091040260200160405190810160405280929190818152602001828054600181600116156101000203166002900480156107145780601f106106e957610100808354040283529160200191610714565b820191906000526020600020905b8154815290600101906020018083116106f757829003601f168201915b50505050508152602001600582018054600181600116156101000203166002900480601f0160208091040260200160405190810160405280929190818152602001828054600181600116156101000203166002900480156107b65780601f1061078b576101008083540402835291602001916107b6565b820191906000526020600020905b81548152906001019060200180831161079957829003601f168201915b505050505081526020016006820160009054906101000a900460ff16151515158152505090506107e4611de4565b6107ed83611857565b9050806040015173ffffffffffffffffffffffffffffffffffffffff163373ffffffffffffffffffffffffffffffffffffffff161461082b57600080fd5b610839816040015184611d18565b81606001516000808282540392505081905550806060015173ffffffffffffffffffffffffffffffffffffffff166108fc83606001519081150290604051600060405180830381858888f1935050505015801561089a573d6000803e3d6000fd5b507f0e239e1f5ffbc45c97a79756b3f0fe8edf81c40d232a46909ace1f916bb911bb60405160405180910390a1505050565b60606002805480602002602001604051908101604052809291908181526020016000905b82821015610d6057838290600052602060002090600c02016040518060c001604052908160008201548152602001600182016040518060e00160405290816000820160009054906101000a900473ffffffffffffffffffffffffffffffffffffffff1673ffffffffffffffffffffffffffffffffffffffff1673ffffffffffffffffffffffffffffffffffffffff1681526020016001820160009054906101000a900473ffffffffffffffffffffffffffffffffffffffff1673ffffffffffffffffffffffffffffffffffffffff1673ffffffffffffffffffffffffffffffffffffffff168152602001600282018054600181600116156101000203166002900480601f016020809104026020016040519081016040528092919081815260200182805460018160011615610100020316600290048015610a725780601f10610a4757610100808354040283529160200191610a72565b820191906000526020600020905b815481529060010190602001808311610a5557829003601f168201915b5050505050815260200160038201548152602001600482018054600181600116156101000203166002900480601f016020809104026020016040519081016040528092919081815260200182805460018160011615610100020316600290048015610b1e5780601f10610af357610100808354040283529160200191610b1e565b820191906000526020600020905b815481529060010190602001808311610b0157829003601f168201915b50505050508152602001600582018054600181600116156101000203166002900480601f016020809104026020016040519081016040528092919081815260200182805460018160011615610100020316600290048015610bc05780601f10610b9557610100808354040283529160200191610bc0565b820191906000526020600020905b815481529060010190602001808311610ba357829003601f168201915b505050505081526020016006820160009054906101000a900460ff16151515158152505081526020016008820160009054906101000a900473ffffffffffffffffffffffffffffffffffffffff1673ffffffffffffffffffffffffffffffffffffffff1673ffffffffffffffffffffffffffffffffffffffff1681526020016009820160009054906101000a900473ffffffffffffffffffffffffffffffffffffffff1673ffffffffffffffffffffffffffffffffffffffff1673ffffffffffffffffffffffffffffffffffffffff168152602001600a82018054600181600116156101000203166002900480601f016020809104026020016040519081016040528092919081815260200182805460018160011615610100020316600290048015610d2d5780601f10610d0257610100808354040283529160200191610d2d565b820191906000526020600020905b815481529060010190602001808311610d1057829003601f168201915b50505050508152602001600b820160009054906101000a900460ff161515151581525050815260200190600101906108f0565b50505050905090565b60016040518060e001604052803373ffffffffffffffffffffffffffffffffffffffff1681526020018773ffffffffffffffffffffffffffffffffffffffff168152602001868152602001858152602001848152602001838152602001600115158152509080600181540180825580915050906001820390600052602060002090600702016000909192909190915060008201518160000160006101000a81548173ffffffffffffffffffffffffffffffffffffffff021916908373ffffffffffffffffffffffffffffffffffffffff16021790555060208201518160010160006101000a81548173ffffffffffffffffffffffffffffffffffffffff021916908373ffffffffffffffffffffffffffffffffffffffff1602179055506040820151816002019080519060200190610ea2929190611e4e565b50606082015181600301556080820151816004019080519060200190610ec9929190611e4e565b5060a0820151816005019080519060200190610ee6929190611e4e565b5060c08201518160060160006101000a81548160ff0219169083151502179055505050507f852b248d3cb8eceb827818ccac8fb7e5f7862a0b4947ea76310da2f1e2d39fc5336001604051610f3c9291906126fb565b60405180910390a15050505050565b610f53611d79565b60018381548110610f6057fe5b90600052602060002090600702016040518060e00160405290816000820160009054906101000a900473ffffffffffffffffffffffffffffffffffffffff1673ffffffffffffffffffffffffffffffffffffffff1673ffffffffffffffffffffffffffffffffffffffff1681526020016001820160009054906101000a900473ffffffffffffffffffffffffffffffffffffffff1673ffffffffffffffffffffffffffffffffffffffff1673ffffffffffffffffffffffffffffffffffffffff168152602001600282018054600181600116156101000203166002900480601f0160208091040260200160405190810160405280929190818152602001828054600181600116156101000203166002900480156110be5780601f10611093576101008083540402835291602001916110be565b820191906000526020600020905b8154815290600101906020018083116110a157829003601f168201915b5050505050815260200160038201548152602001600482018054600181600116156101000203166002900480601f01602080910402602001604051908101604052809291908181526020018280546001816001161561010002031660029004801561116a5780601f1061113f5761010080835404028352916020019161116a565b820191906000526020600020905b81548152906001019060200180831161114d57829003601f168201915b50505050508152602001600582018054600181600116156101000203166002900480601f01602080910402602001604051908101604052809291908181526020018280546001816001161561010002031660029004801561120c5780601f106111e15761010080835404028352916020019161120c565b820191906000526020600020905b8154815290600101906020018083116111ef57829003601f168201915b505050505081526020016006820160009054906101000a900460ff161515151581525050905034600080828254019250508190555060008160c0019015159081151581525050611263838233846020015186611268565b505050565b60026040518060c001604052808781526020018681526020018573ffffffffffffffffffffffffffffffffffffffff1681526020018473ffffffffffffffffffffffffffffffffffffffff168152602001838152602001600015158152509080600181540180825580915050906001820390600052602060002090600c0201600090919290919091506000820151816000015560208201518160010160008201518160000160006101000a81548173ffffffffffffffffffffffffffffffffffffffff021916908373ffffffffffffffffffffffffffffffffffffffff16021790555060208201518160010160006101000a81548173ffffffffffffffffffffffffffffffffffffffff021916908373ffffffffffffffffffffffffffffffffffffffff16021790555060408201518160020190805190602001906113ae929190611e4e565b506060820151816003015560808201518160040190805190602001906113d5929190611e4e565b5060a08201518160050190805190602001906113f2929190611e4e565b5060c08201518160060160006101000a81548160ff021916908315150217905550505060408201518160080160006101000a81548173ffffffffffffffffffffffffffffffffffffffff021916908373ffffffffffffffffffffffffffffffffffffffff16021790555060608201518160090160006101000a81548173ffffffffffffffffffffffffffffffffffffffff021916908373ffffffffffffffffffffffffffffffffffffffff160217905550608082015181600a0190805190602001906114bf929190611e4e565b5060a082015181600b0160006101000a81548160ff0219169083151502179055505050507f9f0cd0b048a3e1fa07fc8ecbffbf1ba5e8f4b94b2e062623f96f5dfe679884c08383600160405161151793929190612724565b60405180910390a15050505050565b60008060606000606080611538611d79565b6001888154811061154557fe5b90600052602060002090600702016040518060e00160405290816000820160009054906101000a900473ffffffffffffffffffffffffffffffffffffffff1673ffffffffffffffffffffffffffffffffffffffff1673ffffffffffffffffffffffffffffffffffffffff1681526020016001820160009054906101000a900473ffffffffffffffffffffffffffffffffffffffff1673ffffffffffffffffffffffffffffffffffffffff1673ffffffffffffffffffffffffffffffffffffffff168152602001600282018054600181600116156101000203166002900480601f0160208091040260200160405190810160405280929190818152602001828054600181600116156101000203166002900480156116a35780601f10611678576101008083540402835291602001916116a3565b820191906000526020600020905b81548152906001019060200180831161168657829003601f168201915b5050505050815260200160038201548152602001600482018054600181600116156101000203166002900480601f01602080910402602001604051908101604052809291908181526020018280546001816001161561010002031660029004801561174f5780601f106117245761010080835404028352916020019161174f565b820191906000526020600020905b81548152906001019060200180831161173257829003601f168201915b50505050508152602001600582018054600181600116156101000203166002900480601f0160208091040260200160405190810160405280929190818152602001828054600181600116156101000203166002900480156117f15780601f106117c6576101008083540402835291602001916117f1565b820191906000526020600020905b8154815290600101906020018083116117d457829003601f168201915b505050505081526020016006820160009054906101000a900460ff1615151515815250509050806000015181602001518260400151836060015184608001518560a001518494508393508191508090509650965096509650965096505091939550919395565b61185f611de4565b60008090505b600280549050811015611d1157826002828154811061188057fe5b90600052602060002090600c0201600001541415611d0457600281815481106118a557fe5b90600052602060002090600c02016040518060c001604052908160008201548152602001600182016040518060e00160405290816000820160009054906101000a900473ffffffffffffffffffffffffffffffffffffffff1673ffffffffffffffffffffffffffffffffffffffff1673ffffffffffffffffffffffffffffffffffffffff1681526020016001820160009054906101000a900473ffffffffffffffffffffffffffffffffffffffff1673ffffffffffffffffffffffffffffffffffffffff1673ffffffffffffffffffffffffffffffffffffffff168152602001600282018054600181600116156101000203166002900480601f016020809104026020016040519081016040528092919081815260200182805460018160011615610100020316600290048015611a1d5780601f106119f257610100808354040283529160200191611a1d565b820191906000526020600020905b815481529060010190602001808311611a0057829003601f168201915b5050505050815260200160038201548152602001600482018054600181600116156101000203166002900480601f016020809104026020016040519081016040528092919081815260200182805460018160011615610100020316600290048015611ac95780601f10611a9e57610100808354040283529160200191611ac9565b820191906000526020600020905b815481529060010190602001808311611aac57829003601f168201915b50505050508152602001600582018054600181600116156101000203166002900480601f016020809104026020016040519081016040528092919081815260200182805460018160011615610100020316600290048015611b6b5780601f10611b4057610100808354040283529160200191611b6b565b820191906000526020600020905b815481529060010190602001808311611b4e57829003601f168201915b505050505081526020016006820160009054906101000a900460ff16151515158152505081526020016008820160009054906101000a900473ffffffffffffffffffffffffffffffffffffffff1673ffffffffffffffffffffffffffffffffffffffff1673ffffffffffffffffffffffffffffffffffffffff1681526020016009820160009054906101000a900473ffffffffffffffffffffffffffffffffffffffff1673ffffffffffffffffffffffffffffffffffffffff1673ffffffffffffffffffffffffffffffffffffffff168152602001600a82018054600181600116156101000203166002900480601f016020809104026020016040519081016040528092919081815260200182805460018160011615610100020316600290048015611cd85780601f10611cad57610100808354040283529160200191611cd8565b820191906000526020600020905b815481529060010190602001808311611cbb57829003601f168201915b50505050508152602001600b820160009054906101000a900460ff161515151581525050915050611d13565b8080600101915050611865565b505b919050565b8160018281548110611d2657fe5b906000526020600020906007020160000160006101000a81548173ffffffffffffffffffffffffffffffffffffffff021916908373ffffffffffffffffffffffffffffffffffffffff1602179055505050565b6040518060e00160405280600073ffffffffffffffffffffffffffffffffffffffff168152602001600073ffffffffffffffffffffffffffffffffffffffff168152602001606081526020016000815260200160608152602001606081526020016000151581525090565b6040518060c0016040528060008152602001611dfe611ece565b8152602001600073ffffffffffffffffffffffffffffffffffffffff168152602001600073ffffffffffffffffffffffffffffffffffffffff168152602001606081526020016000151581525090565b828054600181600116156101000203166002900490600052602060002090601f016020900481019282601f10611e8f57805160ff1916838001178555611ebd565b82800160010185558215611ebd579182015b82811115611ebc578251825591602001919060010190611ea1565b5b509050611eca9190611f39565b5090565b6040518060e00160405280600073ffffffffffffffffffffffffffffffffffffffff168152602001600073ffffffffffffffffffffffffffffffffffffffff168152602001606081526020016000815260200160608152602001606081526020016000151581525090565b611f5b91905b80821115611f57576000816000905550600101611f3f565b5090565b90565b600081359050611f6d81612a49565b92915050565b600081359050611f8281612a60565b92915050565b600081359050611f9781612a77565b92915050565b600082601f830112611fae57600080fd5b8135611fc1611fbc82612864565b612837565b91508082526020830160208301858383011115611fdd57600080fd5b611fe88382846129f6565b50505092915050565b600082601f83011261200257600080fd5b813561201561201082612890565b612837565b9150808252602083016020830185838301111561203157600080fd5b61203c8382846129f6565b50505092915050565b600060e0828403121561205757600080fd5b61206160e0612837565b9050600061207184828501611f5e565b600083015250602061208584828501611f73565b602083015250604082013567ffffffffffffffff8111156120a557600080fd5b6120b184828501611f9d565b60408301525060606120c58482850161213d565b606083015250608082013567ffffffffffffffff8111156120e557600080fd5b6120f184828501611f9d565b60808301525060a082013567ffffffffffffffff81111561211157600080fd5b61211d84828501611f9d565b60a08301525060c061213184828501611f88565b60c08301525092915050565b60008135905061214c81612a8e565b92915050565b600080600080600060a0868803121561216a57600080fd5b600061217888828901611f73565b955050602086013567ffffffffffffffff81111561219557600080fd5b6121a188828901611ff1565b94505060406121b28882890161213d565b935050606086013567ffffffffffffffff8111156121cf57600080fd5b6121db88828901611ff1565b925050608086013567ffffffffffffffff8111156121f857600080fd5b61220488828901611ff1565b9150509295509295909350565b60006020828403121561222357600080fd5b60006122318482850161213d565b91505092915050565b6000806040838503121561224d57600080fd5b600061225b8582860161213d565b925050602083013567ffffffffffffffff81111561227857600080fd5b61228485828601611ff1565b9150509250929050565b600080600080600060a086880312156122a657600080fd5b60006122b48882890161213d565b955050602086013567ffffffffffffffff8111156122d157600080fd5b6122dd88828901612045565b94505060406122ee88828901611f5e565b93505060606122ff88828901611f73565b925050608086013567ffffffffffffffff81111561231c57600080fd5b61232888828901611ff1565b9150509295509295909350565b600061234183836125a3565b905092915050565b60006123558383612633565b905092915050565b612366816129c0565b82525050565b61237581612978565b82525050565b61238481612966565b82525050565b61239381612966565b82525050565b60006123a4826128dc565b6123ae8185612922565b9350836020820285016123c0856128bc565b8060005b858110156123fc57848403895281516123dd8582612335565b94506123e883612908565b925060208a019950506001810190506123c4565b50829750879550505050505092915050565b6000612419826128e7565b6124238185612933565b935083602082028501612435856128cc565b8060005b8581101561247157848403895281516124528582612349565b945061245d83612915565b925060208a01995050600181019050612439565b50829750879550505050505092915050565b61248c8161298a565b82525050565b61249b8161298a565b82525050565b60006124ac826128fd565b6124b68185612955565b93506124c6818560208601612a05565b6124cf81612a38565b840191505092915050565b60006124e5826128f2565b6124ef8185612944565b93506124ff818560208601612a05565b61250881612a38565b840191505092915050565b600060c08301600083015161252b60008601826126dd565b50602083015184820360208601526125438282612633565b9150506040830151612558604086018261237b565b50606083015161256b606086018261236c565b506080830151848203608086015261258382826124da565b91505060a083015161259860a0860182612483565b508091505092915050565b600060c0830160008301516125bb60008601826126dd565b50602083015184820360208601526125d38282612633565b91505060408301516125e8604086018261237b565b5060608301516125fb606086018261236c565b506080830151848203608086015261261382826124da565b91505060a083015161262860a0860182612483565b508091505092915050565b600060e08301600083015161264b600086018261237b565b50602083015161265e602086018261236c565b506040830151848203604086015261267682826124da565b915050606083015161268b60608601826126dd565b50608083015184820360808601526126a382826124da565b91505060a083015184820360a08601526126bd82826124da565b91505060c08301516126d260c0860182612483565b508091505092915050565b6126e6816129b6565b82525050565b6126f5816129b6565b82525050565b6000604082019050612710600083018561235d565b61271d6020830184612492565b9392505050565b6000606082019050612739600083018661238a565b612746602083018561235d565b6127536040830184612492565b949350505050565b600060c082019050612770600083018961238a565b61277d602083018861238a565b818103604083015261278f81876124a1565b905061279e60608301866126ec565b81810360808301526127b081856124a1565b905081810360a08301526127c481846124a1565b9050979650505050505050565b600060208201905081810360008301526127eb8184612399565b905092915050565b6000602082019050818103600083015261280d818461240e565b905092915050565b6000602082019050818103600083015261282f8184612513565b905092915050565b6000604051905081810181811067ffffffffffffffff8211171561285a57600080fd5b8060405250919050565b600067ffffffffffffffff82111561287b57600080fd5b601f19601f8301169050602081019050919050565b600067ffffffffffffffff8211156128a757600080fd5b601f19601f8301169050602081019050919050565b6000819050602082019050919050565b6000819050602082019050919050565b600081519050919050565b600081519050919050565b600081519050919050565b600081519050919050565b6000602082019050919050565b6000602082019050919050565b600082825260208201905092915050565b600082825260208201905092915050565b600082825260208201905092915050565b600082825260208201905092915050565b600061297182612996565b9050919050565b600061298382612996565b9050919050565b60008115159050919050565b600073ffffffffffffffffffffffffffffffffffffffff82169050919050565b6000819050919050565b60006129cb826129d2565b9050919050565b60006129dd826129e4565b9050919050565b60006129ef82612996565b9050919050565b82818337600083830152505050565b60005b83811015612a23578082015181840152602081019050612a08565b83811115612a32576000848401525b50505050565b6000601f19601f8301169050919050565b612a5281612966565b8114612a5d57600080fd5b50565b612a6981612978565b8114612a7457600080fd5b50565b612a808161298a565b8114612a8b57600080fd5b50565b612a97816129b6565b8114612aa257600080fd5b5056fea365627a7a723158208b3b870ff39164b09cf21e768de7b4c0df965cc7968634c7743a3faf546b42226c6578706572696d656e74616cf564736f6c63430005100040",
  "source": "// SPDX-License-Identifier: GPL-3.0\n\npragma solidity >=0.4.22;\npragma experimental ABIEncoderV2;\n\n/**\n * @title SmartContract\n * @dev Store & retrieve value in a variable\n */\n\ncontract SmartContract {\n    uint256 amount = address(this).balance;\n\n    struct Product {\n        address owner;\n        address payable farmer;\n        string name;\n        uint256 price;\n        string typeItem;\n        string description;\n        bool available;\n    }\n\n    struct Order {\n        uint256 productId;\n        Product product;\n        address buyer;\n        address payable seller;\n        string deliveryPlace;\n        bool delivered;\n    }\n\n    Product[] productList;\n    Order[] orders;\n\n    event RegisteredProduct(address sender, bool confirmed);\n    event RegisteredOrder(address buyer, address seller, bool confirmed);\n    event UpdatedOrder();\n\n    // PRODUCTS\n    function setProduct(\n        address payable _farmer,\n        string memory _name,\n        uint256 _price,\n        string memory _typeItem,\n        string memory _description\n    ) public {\n        productList.push(\n            Product({\n                owner: msg.sender,\n                farmer: _farmer,\n                name: _name,\n                price: _price,\n                typeItem: _typeItem,\n                description: _description,\n                available: true\n            })\n        );\n        emit RegisteredProduct(msg.sender, true);\n    }\n\n    function getProduct(uint256 _index)\n        public\n        view\n        returns (\n            address,\n            address,\n            string memory,\n            uint256,\n            string memory,\n            string memory\n        )\n    {\n        Product memory product = productList[_index];\n        return (\n            product.owner,\n            product.farmer,\n            product.name,\n            product.price,\n            product.typeItem,\n            product.description\n        );\n    }\n\n    function getAllProducts() external view returns (Product[] memory) {\n        return productList;\n    }\n\n    function setProductOwner(address newOwner, uint256 index) private {\n        productList[index].owner = newOwner;\n    }\n\n    function setOrder(\n        uint256 _productId,\n        Product memory _product,\n        address _buyer,\n        address payable _seller,\n        string memory _deliveryPlace\n    ) public {\n        orders.push(\n            Order({\n                productId: _productId,\n                product: _product,\n                buyer: _buyer,\n                seller: _seller,\n                deliveryPlace: _deliveryPlace,\n                delivered: false\n            })\n        );\n\n        emit RegisteredOrder(_buyer, _seller, true);\n    }\n\n    function getOrders() public view returns (Order[] memory) {\n        return orders;\n    }\n\n    function getOrder(uint256 _productId)\n        public\n        view\n        returns (Order memory order)\n    {\n        for (uint256 index = 0; index < orders.length; index++) {\n            if (orders[index].productId == _productId) {\n                return orders[index];\n            }\n        }\n    }\n\n    function buyProduct(uint256 _index, string memory _deliveryPlace)\n        public\n        payable\n    {\n        Product memory product = productList[_index];\n        //require(product.price == msg.value);\n        amount += msg.value;\n        product.available = false;\n        setOrder(_index, product, msg.sender, product.farmer, _deliveryPlace);\n    }\n\n    function confirmedPurchase(uint256 _index) public payable {\n        Product memory product = productList[_index];\n        Order memory order = getOrder(_index);\n        require(msg.sender == order.buyer);\n        setProductOwner(order.buyer, _index);\n        amount -= product.price;\n        order.seller.transfer(product.price);\n\n        emit UpdatedOrder();\n    }\n}\n",
  "sourcePath": "C:\\Users\\Erik Rey\\Desktop\\ODS3-project\\contracts\\SmartContract.sol",
  "compiler": {
    "name": "solc",
    "version": "0.5.16+commit.9c3226ce.Emscripten.clang"
  },
  "schemaVersion": "3.4.2",
  "updatedAt": "2021-08-02T20:47:25.722Z",
  "networkType": "ethereum",
  "devdoc": {
    "details": "Store & retrieve value in a variable",
    "methods": {},
    "title": "SmartContract"
  },
  "userdoc": {
    "methods": {}
  }
}